:060000000200110200E203
:03000B000200F9F7
:10006A00E4F515F516750800750900750A00E4F53A
:10007A000BF50C750D64F50E750F64F5107511010D
:0E008A00751201F513F514F51BF51C02000E9E
:03000E0002009855
:100098001200DB1200E9750A047408B50A0D740130
:1000A800B509F375090012021080EB7404B50A0D46
:1000B8007401B509E175090012023A80D97402B5D4
:1000C8000A0D7401B509CF75090012029C80C7E5B5
:1000D8000A80C3D2AFD2A8D2882285B00A75080197
:1000E80032438901758CF7758ADCD2AFD2A9D28CDC
:1000F80022C0E0C0D00515E4B515020516740AB58E
:100108001506E4B5160280028008E4F515F51675A3
:100118000901758CF7758ADCD0D0D0E032AE0DE5D8
:100128000E8E90AE0FE5108EA0AF0E530703AD0FE5
:10013800E510C313CD13CDC313CD13CD5305C07E26
:1001480000EF3395E0FCEF4205EC42068D802285F6
:10015800821985831A85190D851A0E85170F85183A
:10016800100201257408B50A22C37420950DE49580
:100178000E4009750D01750E0002020DE50D24E013
:10018800F50DE50E34FFF50E02020D7404B50A1FD5
:10019800C37420950FE495104007E4F50FF510801F
:1001A80064E50F24E0F50FE51034FFF51080567470
:1001B80002B50A20C3E50F945CE510940140087568
:1001C8000F7C751001803E7420250FF50FE4351063
:1001D800F51080317401B50A20C3E50D94FCE50ED5
:1001E80094014008750D1C750E0280197420250DA8
:1001F800F50DE4350EF50E800C750DC8750E0075FD
:100208000FC87510000201257401250BF50BE435A4
:100218000CF50CC3742C950B7401950C5005E4F582
:100228000BF50C850B0D850C0E850B0F850C10023C
:100238000125C3E50D941CE50E94024005E49511D3
:10024800F511C3E50F947CE51094014005E495127F
:10025800F512C37401950DE4950E4005E49511F56A
:1002680011E50F45107006C3E49512F512AE11E5BD
:10027800113395E0FFEE250DF50DEF350EF50EAEB9
:1002880012E5123395E0FFEE250FF50FEF3510F567
:1002980010020125E513B401009200E514B4010031
:1002A8009201A20082015012750D01E4F50EF50FBE
:1002B800F510751301F514751B017401B51B0405C0
:1002C8001480077401B51C021514C3E50F947CE56E
:1002D8001094014005E49514F514E50F45107009D4
:1002E800C3E49514F514751C01C3E50D941CE50EC3
:1002F80094024006750D01750E00AE13E513339593
:10030800E0FFEE250DF50DEF350EF50EAE14E514F4
:100318003395E0FFEE250FF50FEF3510F5100201CC
:0103280025AF
:06004000E478FFF6D8FD94
:10001E007900E94400601B7A0090032D780175A0E9
:10002E0000E493F2A308B8000205A0D9F4DAF27541
:02003E00A0FF21
:100046007800E84400600A790175A000E4F309D855
:10005600FC7800E84400600C7900900001E4F0A30D
:04006600D8FCD9FAEF
:0D001100758120120329E582600302000EB4
:0403290075820022B7
:00000001FF
