:03000000020006F5
:03005F0002000399
:0300030002009D5B
:10006200E4F50AF50BC3E50A9464E50B9400502A03
:10007200E4F50CF50DC3E50C94E8E50D9403500D81
:100082007401250CF50CE4350DF50D80E87401259D
:100092000AF50AE4350BF50B80CB22E4F508F509E5
:1000A200C3E508940AE5099400501375A0FF75A0F2
:1000B2000074012508F508E43509F50980E275A008
:1000C2000112006275A00212006275A004120062A1
:1000D20075A00812006275A01012006275A02012AD
:1000E200006275A04012006275A08012006280CE8C
:06003500E478FFF6D8FD9F
:100013007900E94400601B7A009000F6780175A02E
:1000230000E493F2A308B8000205A0D9F4DAF2754C
:02003300A0FF2C
:10003B007800E84400600A790175A000E4F309D860
:10004B00FC7800E84400600C7900900001E4F0A318
:04005B00D8FCD9FAFA
:0D00060075810D1200F2E582600302000317
:0400F20075820022F1
:00000001FF
